{
  "contractName": "BlockClockSvgNft",
  "abi": [
    {
      "inputs": [],
      "stateMutability": "nonpayable",
      "type": "constructor"
    },
    {
      "anonymous": false,
      "inputs": [
        {
          "indexed": true,
          "internalType": "address",
          "name": "owner",
          "type": "address"
        },
        {
          "indexed": true,
          "internalType": "address",
          "name": "approved",
          "type": "address"
        },
        {
          "indexed": true,
          "internalType": "uint256",
          "name": "tokenId",
          "type": "uint256"
        }
      ],
      "name": "Approval",
      "type": "event"
    },
    {
      "anonymous": false,
      "inputs": [
        {
          "indexed": true,
          "internalType": "address",
          "name": "owner",
          "type": "address"
        },
        {
          "indexed": true,
          "internalType": "address",
          "name": "operator",
          "type": "address"
        },
        {
          "indexed": false,
          "internalType": "bool",
          "name": "approved",
          "type": "bool"
        }
      ],
      "name": "ApprovalForAll",
      "type": "event"
    },
    {
      "anonymous": false,
      "inputs": [
        {
          "indexed": false,
          "internalType": "uint256",
          "name": "_tokenId",
          "type": "uint256"
        },
        {
          "indexed": false,
          "internalType": "bytes3",
          "name": "_bitcoinLeafColour",
          "type": "bytes3"
        },
        {
          "indexed": false,
          "internalType": "bytes3",
          "name": "_rskLeafColour",
          "type": "bytes3"
        }
      ],
      "name": "TokenInfo",
      "type": "event"
    },
    {
      "anonymous": false,
      "inputs": [
        {
          "indexed": true,
          "internalType": "address",
          "name": "from",
          "type": "address"
        },
        {
          "indexed": true,
          "internalType": "address",
          "name": "to",
          "type": "address"
        },
        {
          "indexed": true,
          "internalType": "uint256",
          "name": "tokenId",
          "type": "uint256"
        }
      ],
      "name": "Transfer",
      "type": "event"
    },
    {
      "inputs": [
        {
          "internalType": "address",
          "name": "to",
          "type": "address"
        },
        {
          "internalType": "uint256",
          "name": "tokenId",
          "type": "uint256"
        }
      ],
      "name": "approve",
      "outputs": [],
      "stateMutability": "nonpayable",
      "type": "function"
    },
    {
      "inputs": [
        {
          "internalType": "address",
          "name": "owner",
          "type": "address"
        }
      ],
      "name": "balanceOf",
      "outputs": [
        {
          "internalType": "uint256",
          "name": "",
          "type": "uint256"
        }
      ],
      "stateMutability": "view",
      "type": "function",
      "constant": true
    },
    {
      "inputs": [
        {
          "internalType": "uint256",
          "name": "tokenId",
          "type": "uint256"
        }
      ],
      "name": "getApproved",
      "outputs": [
        {
          "internalType": "address",
          "name": "",
          "type": "address"
        }
      ],
      "stateMutability": "view",
      "type": "function",
      "constant": true
    },
    {
      "inputs": [
        {
          "internalType": "address",
          "name": "owner",
          "type": "address"
        },
        {
          "internalType": "address",
          "name": "operator",
          "type": "address"
        }
      ],
      "name": "isApprovedForAll",
      "outputs": [
        {
          "internalType": "bool",
          "name": "",
          "type": "bool"
        }
      ],
      "stateMutability": "view",
      "type": "function",
      "constant": true
    },
    {
      "inputs": [],
      "name": "name",
      "outputs": [
        {
          "internalType": "string",
          "name": "",
          "type": "string"
        }
      ],
      "stateMutability": "view",
      "type": "function",
      "constant": true
    },
    {
      "inputs": [
        {
          "internalType": "uint256",
          "name": "tokenId",
          "type": "uint256"
        }
      ],
      "name": "ownerOf",
      "outputs": [
        {
          "internalType": "address",
          "name": "",
          "type": "address"
        }
      ],
      "stateMutability": "view",
      "type": "function",
      "constant": true
    },
    {
      "inputs": [
        {
          "internalType": "address",
          "name": "from",
          "type": "address"
        },
        {
          "internalType": "address",
          "name": "to",
          "type": "address"
        },
        {
          "internalType": "uint256",
          "name": "tokenId",
          "type": "uint256"
        }
      ],
      "name": "safeTransferFrom",
      "outputs": [],
      "stateMutability": "nonpayable",
      "type": "function"
    },
    {
      "inputs": [
        {
          "internalType": "address",
          "name": "from",
          "type": "address"
        },
        {
          "internalType": "address",
          "name": "to",
          "type": "address"
        },
        {
          "internalType": "uint256",
          "name": "tokenId",
          "type": "uint256"
        },
        {
          "internalType": "bytes",
          "name": "_data",
          "type": "bytes"
        }
      ],
      "name": "safeTransferFrom",
      "outputs": [],
      "stateMutability": "nonpayable",
      "type": "function"
    },
    {
      "inputs": [
        {
          "internalType": "address",
          "name": "operator",
          "type": "address"
        },
        {
          "internalType": "bool",
          "name": "approved",
          "type": "bool"
        }
      ],
      "name": "setApprovalForAll",
      "outputs": [],
      "stateMutability": "nonpayable",
      "type": "function"
    },
    {
      "inputs": [
        {
          "internalType": "bytes4",
          "name": "interfaceId",
          "type": "bytes4"
        }
      ],
      "name": "supportsInterface",
      "outputs": [
        {
          "internalType": "bool",
          "name": "",
          "type": "bool"
        }
      ],
      "stateMutability": "view",
      "type": "function",
      "constant": true
    },
    {
      "inputs": [],
      "name": "symbol",
      "outputs": [
        {
          "internalType": "string",
          "name": "",
          "type": "string"
        }
      ],
      "stateMutability": "view",
      "type": "function",
      "constant": true
    },
    {
      "inputs": [
        {
          "internalType": "uint256",
          "name": "tokenId",
          "type": "uint256"
        }
      ],
      "name": "tokenURI",
      "outputs": [
        {
          "internalType": "string",
          "name": "",
          "type": "string"
        }
      ],
      "stateMutability": "view",
      "type": "function",
      "constant": true
    },
    {
      "inputs": [
        {
          "internalType": "address",
          "name": "from",
          "type": "address"
        },
        {
          "internalType": "address",
          "name": "to",
          "type": "address"
        },
        {
          "internalType": "uint256",
          "name": "tokenId",
          "type": "uint256"
        }
      ],
      "name": "transferFrom",
      "outputs": [],
      "stateMutability": "nonpayable",
      "type": "function"
    },
    {
      "inputs": [
        {
          "internalType": "bytes3",
          "name": "bitcoinLeafColour",
          "type": "bytes3"
        },
        {
          "internalType": "bytes3",
          "name": "rskLeafColour",
          "type": "bytes3"
        }
      ],
      "name": "create",
      "outputs": [],
      "stateMutability": "nonpayable",
      "type": "function"
    },
    {
      "inputs": [
        {
          "internalType": "uint256",
          "name": "_tokenId",
          "type": "uint256"
        }
      ],
      "name": "renderSvgLogo",
      "outputs": [
        {
          "internalType": "string",
          "name": "",
          "type": "string"
        }
      ],
      "stateMutability": "view",
      "type": "function",
      "constant": true
    },
    {
      "inputs": [],
      "name": "getRskBtcBlockNumbers",
      "outputs": [
        {
          "internalType": "uint256",
          "name": "",
          "type": "uint256"
        },
        {
          "internalType": "uint256",
          "name": "",
          "type": "uint256"
        }
      ],
      "stateMutability": "view",
      "type": "function",
      "constant": true
    },
    {
      "inputs": [
        {
          "internalType": "uint24",
          "name": "i",
          "type": "uint24"
        }
      ],
      "name": "uint24ToHexStr",
      "outputs": [
        {
          "internalType": "string",
          "name": "",
          "type": "string"
        }
      ],
      "stateMutability": "pure",
      "type": "function",
      "constant": true
    }
  ],
  "bytecode": "0x60806040523480156200001157600080fd5b506040518060400160405280601181526020017f54657374426c6f636b436c6f636b4e66740000000000000000000000000000008152506040518060400160405280600881526020017f5465737442434c4b000000000000000000000000000000000000000000000000815250816000908051906020019062000096929190620000c0565b508060019080519060200190620000af929190620000c0565b5050506000600681905550620001d5565b828054620000ce9062000170565b90600052602060002090601f016020900481019282620000f257600085556200013e565b82601f106200010d57805160ff19168380011785556200013e565b828001600101855582156200013e579182015b828111156200013d57825182559160200191906001019062000120565b5b5090506200014d919062000151565b5090565b5b808211156200016c57600081600090555060010162000152565b5090565b600060028204905060018216806200018957607f821691505b60208210811415620001a0576200019f620001a6565b5b50919050565b7f4e487b7100000000000000000000000000000000000000000000000000000000600052602260045260246000fd5b61340980620001e56000396000f3fe608060405234801561001057600080fd5b506004361061010b5760003560e01c80636352211e116100a2578063a22cb46511610071578063a22cb465146102cb578063b88d4fde146102e7578063c87b56dd14610303578063d370cdce14610333578063e985e9c5146103635761010b565b80636352211e1461021d57806370a082311461024d578063750c8b461461027d57806395d89b41146102ad5761010b565b80632053df59116100de5780632053df59146101aa57806323b872dd146101c65780632e384109146101e257806342842e0e146102015761010b565b806301ffc9a71461011057806306fdde0314610140578063081812fc1461015e578063095ea7b31461018e575b600080fd5b61012a6004803603810190610125919061207a565b610393565b604051610137919061252e565b60405180910390f35b610148610475565b6040516101559190612549565b60405180910390f35b6101786004803603810190610173919061212e565b610507565b60405161018591906124c7565b60405180910390f35b6101a860048036038101906101a39190611ffa565b61058c565b005b6101c460048036038101906101bf919061203a565b6106a4565b005b6101e060048036038101906101db9190611ee4565b6107be565b005b6101ea61081e565b6040516101f892919061277d565b60405180910390f35b61021b60048036038101906102169190611ee4565b6108bb565b005b6102376004803603810190610232919061212e565b6108db565b60405161024491906124c7565b60405180910390f35b61026760048036038101906102629190611e77565b61098d565b604051610274919061272b565b60405180910390f35b61029760048036038101906102929190612101565b610a45565b6040516102a49190612549565b60405180910390f35b6102b5610b35565b6040516102c29190612549565b60405180910390f35b6102e560048036038101906102e09190611fba565b610bc7565b005b61030160048036038101906102fc9190611f37565b610d48565b005b61031d6004803603810190610318919061212e565b610daa565b60405161032a9190612549565b60405180910390f35b61034d6004803603810190610348919061212e565b610e51565b60405161035a9190612549565b60405180910390f35b61037d60048036038101906103789190611ea4565b610ecf565b60405161038a919061252e565b60405180910390f35b60007f80ac58cd000000000000000000000000000000000000000000000000000000007bffffffffffffffffffffffffffffffffffffffffffffffffffffffff1916827bffffffffffffffffffffffffffffffffffffffffffffffffffffffff1916148061045e57507f5b5e139f000000000000000000000000000000000000000000000000000000007bffffffffffffffffffffffffffffffffffffffffffffffffffffffff1916827bffffffffffffffffffffffffffffffffffffffffffffffffffffffff1916145b8061046e575061046d82610f63565b5b9050919050565b60606000805461048490612a93565b80601f01602080910402602001604051908101604052809291908181526020018280546104b090612a93565b80156104fd5780601f106104d2576101008083540402835291602001916104fd565b820191906000526020600020905b8154815290600101906020018083116104e057829003601f168201915b5050505050905090565b600061051282610fcd565b610551576040517f08c379a00000000000000000000000000000000000000000000000000000000081526004016105489061268b565b60405180910390fd5b6004600083815260200190815260200160002060009054906101000a900473ffffffffffffffffffffffffffffffffffffffff169050919050565b6000610597826108db565b90508073ffffffffffffffffffffffffffffffffffffffff168373ffffffffffffffffffffffffffffffffffffffff161415610608576040517f08c379a00000000000000000000000000000000000000000000000000000000081526004016105ff906126eb565b60405180910390fd5b8073ffffffffffffffffffffffffffffffffffffffff16610627611039565b73ffffffffffffffffffffffffffffffffffffffff161480610656575061065581610650611039565b610ecf565b5b610695576040517f08c379a000000000000000000000000000000000000000000000000000000000815260040161068c9061260b565b60405180910390fd5b61069f8383611041565b505050565b60006006600081546106b590612af6565b919050819055905060006040518060400160405280857cffffffffffffffffffffffffffffffffffffffffffffffffffffffffff19168152602001847cffffffffffffffffffffffffffffffffffffffffffffffffffffffffff19168152509050806007600084815260200190815260200160002060008201518160000160006101000a81548162ffffff021916908360e81c021790555060208201518160000160036101000a81548162ffffff021916908360e81c021790555090505061077d33836110fa565b7ffe029a5c3475c2652ec17369d803d2a7989bf81f22ea8dbdfd7b89f470b4baa38285856040516107b093929190612746565b60405180910390a150505050565b6107cf6107c9611039565b82611118565b61080e576040517f08c379a00000000000000000000000000000000000000000000000000000000081526004016108059061270b565b60405180910390fd5b6108198383836111f6565b505050565b60008060004390506000610830611452565b73ffffffffffffffffffffffffffffffffffffffff166314c89c016040518163ffffffff1660e01b815260040160206040518083038186803b15801561087557600080fd5b505afa158015610889573d6000803e3d6000fd5b505050506040513d601f19601f820116820180604052508101906108ad91906120d4565b905080829350935050509091565b6108d683838360405180602001604052806000815250610d48565b505050565b6000806002600084815260200190815260200160002060009054906101000a900473ffffffffffffffffffffffffffffffffffffffff169050600073ffffffffffffffffffffffffffffffffffffffff168173ffffffffffffffffffffffffffffffffffffffff161415610984576040517f08c379a000000000000000000000000000000000000000000000000000000000815260040161097b9061264b565b60405180910390fd5b80915050919050565b60008073ffffffffffffffffffffffffffffffffffffffff168273ffffffffffffffffffffffffffffffffffffffff1614156109fe576040517f08c379a00000000000000000000000000000000000000000000000000000000081526004016109f59061262b565b60405180910390fd5b600360008373ffffffffffffffffffffffffffffffffffffffff1673ffffffffffffffffffffffffffffffffffffffff168152602001908152602001600020549050919050565b60606000600667ffffffffffffffff811115610a6457610a63612c2c565b5b6040519080825280601f01601f191660200182016040528015610a965781602001600182028036833780820191505090505b5090506000600f90506000600690505b60018110610b2a57610ab982861661145e565b60f81b83600183610aca9190612957565b81518110610adb57610ada612bfd565b5b60200101907effffffffffffffffffffffffffffffffffffffffffffffffffffffffffffff1916908160001a90535060048562ffffff16901c9450600181610b239190612957565b9050610aa6565b508192505050919050565b606060018054610b4490612a93565b80601f0160208091040260200160405190810160405280929190818152602001828054610b7090612a93565b8015610bbd5780601f10610b9257610100808354040283529160200191610bbd565b820191906000526020600020905b815481529060010190602001808311610ba057829003601f168201915b5050505050905090565b610bcf611039565b73ffffffffffffffffffffffffffffffffffffffff168273ffffffffffffffffffffffffffffffffffffffff161415610c3d576040517f08c379a0000000000000000000000000000000000000000000000000000000008152600401610c34906125cb565b60405180910390fd5b8060056000610c4a611039565b73ffffffffffffffffffffffffffffffffffffffff1673ffffffffffffffffffffffffffffffffffffffff16815260200190815260200160002060008473ffffffffffffffffffffffffffffffffffffffff1673ffffffffffffffffffffffffffffffffffffffff16815260200190815260200160002060006101000a81548160ff0219169083151502179055508173ffffffffffffffffffffffffffffffffffffffff16610cf7611039565b73ffffffffffffffffffffffffffffffffffffffff167f17307eab39ab6107e8899845ad3d59bd9653f200f220920489ca2b5937696c3183604051610d3c919061252e565b60405180910390a35050565b610d59610d53611039565b83611118565b610d98576040517f08c379a0000000000000000000000000000000000000000000000000000000008152600401610d8f9061270b565b60405180910390fd5b610da484848484611492565b50505050565b6060610db582610fcd565b610df4576040517f08c379a0000000000000000000000000000000000000000000000000000000008152600401610deb906126cb565b60405180910390fd5b6000610dfe6114ee565b90506000815111610e1e5760405180602001604052806000815250610e49565b80610e2884611505565b604051602001610e39929190612424565b6040516020818303038152906040525b915050919050565b606060006007600084815260200190815260200160002060000160009054906101000a900460e81b905060006007600085815260200190815260200160002060000160039054906101000a900460e81b9050600080610eae61081e565b915091506000610ec083838787611666565b90508095505050505050919050565b6000600560008473ffffffffffffffffffffffffffffffffffffffff1673ffffffffffffffffffffffffffffffffffffffff16815260200190815260200160002060008373ffffffffffffffffffffffffffffffffffffffff1673ffffffffffffffffffffffffffffffffffffffff16815260200190815260200160002060009054906101000a900460ff16905092915050565b60007f01ffc9a7000000000000000000000000000000000000000000000000000000007bffffffffffffffffffffffffffffffffffffffffffffffffffffffff1916827bffffffffffffffffffffffffffffffffffffffffffffffffffffffff1916149050919050565b60008073ffffffffffffffffffffffffffffffffffffffff166002600084815260200190815260200160002060009054906101000a900473ffffffffffffffffffffffffffffffffffffffff1673ffffffffffffffffffffffffffffffffffffffff1614159050919050565b600033905090565b816004600083815260200190815260200160002060006101000a81548173ffffffffffffffffffffffffffffffffffffffff021916908373ffffffffffffffffffffffffffffffffffffffff160217905550808273ffffffffffffffffffffffffffffffffffffffff166110b4836108db565b73ffffffffffffffffffffffffffffffffffffffff167f8c5be1e5ebec7d5bd14f71427d1e84f3dd0314c0f7b2291e5b200ac8c7c3b92560405160405180910390a45050565b611114828260405180602001604052806000815250611787565b5050565b600061112382610fcd565b611162576040517f08c379a0000000000000000000000000000000000000000000000000000000008152600401611159906125eb565b60405180910390fd5b600061116d836108db565b90508073ffffffffffffffffffffffffffffffffffffffff168473ffffffffffffffffffffffffffffffffffffffff1614806111dc57508373ffffffffffffffffffffffffffffffffffffffff166111c484610507565b73ffffffffffffffffffffffffffffffffffffffff16145b806111ed57506111ec8185610ecf565b5b91505092915050565b8273ffffffffffffffffffffffffffffffffffffffff16611216826108db565b73ffffffffffffffffffffffffffffffffffffffff161461126c576040517f08c379a0000000000000000000000000000000000000000000000000000000008152600401611263906126ab565b60405180910390fd5b600073ffffffffffffffffffffffffffffffffffffffff168273ffffffffffffffffffffffffffffffffffffffff1614156112dc576040517f08c379a00000000000000000000000000000000000000000000000000000000081526004016112d3906125ab565b60405180910390fd5b6112e78383836117e2565b6112f2600082611041565b6001600360008573ffffffffffffffffffffffffffffffffffffffff1673ffffffffffffffffffffffffffffffffffffffff16815260200190815260200160002060008282546113429190612957565b925050819055506001600360008473ffffffffffffffffffffffffffffffffffffffff1673ffffffffffffffffffffffffffffffffffffffff1681526020019081526020016000206000828254611399919061283f565b92505081905550816002600083815260200190815260200160002060006101000a81548173ffffffffffffffffffffffffffffffffffffffff021916908373ffffffffffffffffffffffffffffffffffffffff160217905550808273ffffffffffffffffffffffffffffffffffffffff168473ffffffffffffffffffffffffffffffffffffffff167fddf252ad1be2c89b69c2b068fc378daa952ba7f163c4a11628f55a4df523b3ef60405160405180910390a4505050565b60006301000006905090565b600060098260ff161161147d576030826114789190612895565b61148b565b60578261148a9190612895565b5b9050919050565b61149d8484846111f6565b6114a9848484846117e7565b6114e8576040517f08c379a00000000000000000000000000000000000000000000000000000000081526004016114df9061256b565b60405180910390fd5b50505050565b606060405180602001604052806000815250905090565b6060600082141561154d576040518060400160405280600181526020017f30000000000000000000000000000000000000000000000000000000000000008152509050611661565b600082905060005b6000821461157f57808061156890612af6565b915050600a8261157891906128cc565b9150611555565b60008167ffffffffffffffff81111561159b5761159a612c2c565b5b6040519080825280601f01601f1916602001820160405280156115cd5781602001600182028036833780820191505090505b5090505b6000851461165a576001826115e69190612957565b9150600a856115f59190612b3f565b6030611601919061283f565b60f81b81838151811061161757611616612bfd565b5b60200101907effffffffffffffffffffffffffffffffffffffffffffffffffffffffffffff1916908160001a905350600a8561165391906128cc565b94506115d1565b8093505050505b919050565b60606000604051806102c0016040528061029381526020016131026102939139905060006040518060400160405280601081526020017f2c20302c203029222066696c6c3d222300000000000000000000000000000000815250905060006040518060600160405280603f8152602001613395603f9139905060006040518060400160405280601181526020017f222f3e3c2f673e3c2f673e3c2f7376673e00000000000000000000000000000081525090508361172b6117268b61197e565b6119ac565b846117358a611b35565b856117476117428e611b50565b6119ac565b886117518d611b35565b8860405160200161176a99989796959493929190612448565b604051602081830303815290604052945050505050949350505050565b6117918383611b7e565b61179e60008484846117e7565b6117dd576040517f08c379a00000000000000000000000000000000000000000000000000000000081526004016117d49061256b565b60405180910390fd5b505050565b505050565b60006118088473ffffffffffffffffffffffffffffffffffffffff16611d4c565b15611971578373ffffffffffffffffffffffffffffffffffffffff1663150b7a02611831611039565b8786866040518563ffffffff1660e01b815260040161185394939291906124e2565b602060405180830381600087803b15801561186d57600080fd5b505af192505050801561189e57506040513d601f19601f8201168201806040525081019061189b91906120a7565b60015b611921573d80600081146118ce576040519150601f19603f3d011682016040523d82523d6000602084013e6118d3565b606091505b50600081511415611919576040517f08c379a00000000000000000000000000000000000000000000000000000000081526004016119109061256b565b60405180910390fd5b805181602001fd5b63150b7a0260e01b7bffffffffffffffffffffffffffffffffffffffffffffffffffffffff1916817bffffffffffffffffffffffffffffffffffffffffffffffffffffffff191614915050611976565b600190505b949350505050565b6000605a603c6006846119919190612b3f565b61199b91906128fd565b6119a5919061283f565b9050919050565b606060008214156119f4576040518060400160405280600181526020017f30000000000000000000000000000000000000000000000000000000000000008152509050611b30565b600082905060005b60008214611a26578080611a0f90612af6565b915050600a82611a1f91906128cc565b91506119fc565b60008167ffffffffffffffff811115611a4257611a41612c2c565b5b6040519080825280601f01601f191660200182016040528015611a745781602001600182028036833780820191505090505b50905060008290505b60008614611b2857600181611a929190612957565b90506000600a8088611aa491906128cc565b611aae91906128fd565b87611ab99190612957565b6030611ac59190612895565b905060008160f81b905080848481518110611ae357611ae2612bfd565b5b60200101907effffffffffffffffffffffffffffffffffffffffffffffffffffffffffffff1916908160001a905350600a88611b1f91906128cc565b97505050611a7d565b819450505050505b919050565b606060008260e81c9050611b4881610a45565b915050919050565b6000605a6012601484611b639190612b3f565b611b6d91906128fd565b611b77919061283f565b9050919050565b600073ffffffffffffffffffffffffffffffffffffffff168273ffffffffffffffffffffffffffffffffffffffff161415611bee576040517f08c379a0000000000000000000000000000000000000000000000000000000008152600401611be59061266b565b60405180910390fd5b611bf781610fcd565b15611c37576040517f08c379a0000000000000000000000000000000000000000000000000000000008152600401611c2e9061258b565b60405180910390fd5b611c43600083836117e2565b6001600360008473ffffffffffffffffffffffffffffffffffffffff1673ffffffffffffffffffffffffffffffffffffffff1681526020019081526020016000206000828254611c93919061283f565b92505081905550816002600083815260200190815260200160002060006101000a81548173ffffffffffffffffffffffffffffffffffffffff021916908373ffffffffffffffffffffffffffffffffffffffff160217905550808273ffffffffffffffffffffffffffffffffffffffff16600073ffffffffffffffffffffffffffffffffffffffff167fddf252ad1be2c89b69c2b068fc378daa952ba7f163c4a11628f55a4df523b3ef60405160405180910390a45050565b600080823b905060008111915050919050565b6000611d72611d6d846127cb565b6127a6565b905082815260208101848484011115611d8e57611d8d612c60565b5b611d99848285612a51565b509392505050565b600081359050611db081613060565b92915050565b600081359050611dc581613077565b92915050565b600081359050611dda8161308e565b92915050565b600081359050611def816130a5565b92915050565b600081519050611e04816130a5565b92915050565b600082601f830112611e1f57611e1e612c5b565b5b8135611e2f848260208601611d5f565b91505092915050565b600081519050611e47816130bc565b92915050565b600081359050611e5c816130d3565b92915050565b600081359050611e71816130ea565b92915050565b600060208284031215611e8d57611e8c612c6a565b5b6000611e9b84828501611da1565b91505092915050565b60008060408385031215611ebb57611eba612c6a565b5b6000611ec985828601611da1565b9250506020611eda85828601611da1565b9150509250929050565b600080600060608486031215611efd57611efc612c6a565b5b6000611f0b86828701611da1565b9350506020611f1c86828701611da1565b9250506040611f2d86828701611e62565b9150509250925092565b60008060008060808587031215611f5157611f50612c6a565b5b6000611f5f87828801611da1565b9450506020611f7087828801611da1565b9350506040611f8187828801611e62565b925050606085013567ffffffffffffffff811115611fa257611fa1612c65565b5b611fae87828801611e0a565b91505092959194509250565b60008060408385031215611fd157611fd0612c6a565b5b6000611fdf85828601611da1565b9250506020611ff085828601611db6565b9150509250929050565b6000806040838503121561201157612010612c6a565b5b600061201f85828601611da1565b925050602061203085828601611e62565b9150509250929050565b6000806040838503121561205157612050612c6a565b5b600061205f85828601611dcb565b925050602061207085828601611dcb565b9150509250929050565b6000602082840312156120905761208f612c6a565b5b600061209e84828501611de0565b91505092915050565b6000602082840312156120bd576120bc612c6a565b5b60006120cb84828501611df5565b91505092915050565b6000602082840312156120ea576120e9612c6a565b5b60006120f884828501611e38565b91505092915050565b60006020828403121561211757612116612c6a565b5b600061212584828501611e4d565b91505092915050565b60006020828403121561214457612143612c6a565b5b600061215284828501611e62565b91505092915050565b6121648161298b565b82525050565b6121738161299d565b82525050565b612182816129a9565b82525050565b6000612193826127fc565b61219d8185612812565b93506121ad818560208601612a60565b6121b681612c6f565b840191505092915050565b60006121cc82612807565b6121d68185612823565b93506121e6818560208601612a60565b6121ef81612c6f565b840191505092915050565b600061220582612807565b61220f8185612834565b935061221f818560208601612a60565b80840191505092915050565b6000612238603283612823565b915061224382612c80565b604082019050919050565b600061225b601c83612823565b915061226682612ccf565b602082019050919050565b600061227e602483612823565b915061228982612cf8565b604082019050919050565b60006122a1601983612823565b91506122ac82612d47565b602082019050919050565b60006122c4602c83612823565b91506122cf82612d70565b604082019050919050565b60006122e7603883612823565b91506122f282612dbf565b604082019050919050565b600061230a602a83612823565b915061231582612e0e565b604082019050919050565b600061232d602983612823565b915061233882612e5d565b604082019050919050565b6000612350602083612823565b915061235b82612eac565b602082019050919050565b6000612373602c83612823565b915061237e82612ed5565b604082019050919050565b6000612396602983612823565b91506123a182612f24565b604082019050919050565b60006123b9602f83612823565b91506123c482612f73565b604082019050919050565b60006123dc602183612823565b91506123e782612fc2565b604082019050919050565b60006123ff603183612823565b915061240a82613011565b604082019050919050565b61241e81612a3a565b82525050565b600061243082856121fa565b915061243c82846121fa565b91508190509392505050565b6000612454828c6121fa565b9150612460828b6121fa565b915061246c828a6121fa565b915061247882896121fa565b915061248482886121fa565b915061249082876121fa565b915061249c82866121fa565b91506124a882856121fa565b91506124b482846121fa565b91508190509a9950505050505050505050565b60006020820190506124dc600083018461215b565b92915050565b60006080820190506124f7600083018761215b565b612504602083018661215b565b6125116040830185612415565b81810360608301526125238184612188565b905095945050505050565b6000602082019050612543600083018461216a565b92915050565b6000602082019050818103600083015261256381846121c1565b905092915050565b600060208201905081810360008301526125848161222b565b9050919050565b600060208201905081810360008301526125a48161224e565b9050919050565b600060208201905081810360008301526125c481612271565b9050919050565b600060208201905081810360008301526125e481612294565b9050919050565b60006020820190508181036000830152612604816122b7565b9050919050565b60006020820190508181036000830152612624816122da565b9050919050565b60006020820190508181036000830152612644816122fd565b9050919050565b6000602082019050818103600083015261266481612320565b9050919050565b6000602082019050818103600083015261268481612343565b9050919050565b600060208201905081810360008301526126a481612366565b9050919050565b600060208201905081810360008301526126c481612389565b9050919050565b600060208201905081810360008301526126e4816123ac565b9050919050565b60006020820190508181036000830152612704816123cf565b9050919050565b60006020820190508181036000830152612724816123f2565b9050919050565b60006020820190506127406000830184612415565b92915050565b600060608201905061275b6000830186612415565b6127686020830185612179565b6127756040830184612179565b949350505050565b60006040820190506127926000830185612415565b61279f6020830184612415565b9392505050565b60006127b06127c1565b90506127bc8282612ac5565b919050565b6000604051905090565b600067ffffffffffffffff8211156127e6576127e5612c2c565b5b6127ef82612c6f565b9050602081019050919050565b600081519050919050565b600081519050919050565b600082825260208201905092915050565b600082825260208201905092915050565b600081905092915050565b600061284a82612a3a565b915061285583612a3a565b9250827fffffffffffffffffffffffffffffffffffffffffffffffffffffffffffffffff0382111561288a57612889612b70565b5b828201905092915050565b60006128a082612a44565b91506128ab83612a44565b92508260ff038211156128c1576128c0612b70565b5b828201905092915050565b60006128d782612a3a565b91506128e283612a3a565b9250826128f2576128f1612b9f565b5b828204905092915050565b600061290882612a3a565b915061291383612a3a565b9250817fffffffffffffffffffffffffffffffffffffffffffffffffffffffffffffffff048311821515161561294c5761294b612b70565b5b828202905092915050565b600061296282612a3a565b915061296d83612a3a565b9250828210156129805761297f612b70565b5b828203905092915050565b600061299682612a0b565b9050919050565b60008115159050919050565b60007fffffff000000000000000000000000000000000000000000000000000000000082169050919050565b60007fffffffff0000000000000000000000000000000000000000000000000000000082169050919050565b6000819050919050565b600073ffffffffffffffffffffffffffffffffffffffff82169050919050565b600062ffffff82169050919050565b6000819050919050565b600060ff82169050919050565b82818337600083830152505050565b60005b83811015612a7e578082015181840152602081019050612a63565b83811115612a8d576000848401525b50505050565b60006002820490506001821680612aab57607f821691505b60208210811415612abf57612abe612bce565b5b50919050565b612ace82612c6f565b810181811067ffffffffffffffff82111715612aed57612aec612c2c565b5b80604052505050565b6000612b0182612a3a565b91507fffffffffffffffffffffffffffffffffffffffffffffffffffffffffffffffff821415612b3457612b33612b70565b5b600182019050919050565b6000612b4a82612a3a565b9150612b5583612a3a565b925082612b6557612b64612b9f565b5b828206905092915050565b7f4e487b7100000000000000000000000000000000000000000000000000000000600052601160045260246000fd5b7f4e487b7100000000000000000000000000000000000000000000000000000000600052601260045260246000fd5b7f4e487b7100000000000000000000000000000000000000000000000000000000600052602260045260246000fd5b7f4e487b7100000000000000000000000000000000000000000000000000000000600052603260045260246000fd5b7f4e487b7100000000000000000000000000000000000000000000000000000000600052604160045260246000fd5b600080fd5b600080fd5b600080fd5b600080fd5b6000601f19601f8301169050919050565b7f4552433732313a207472616e7366657220746f206e6f6e20455243373231526560008201527f63656976657220696d706c656d656e7465720000000000000000000000000000602082015250565b7f4552433732313a20746f6b656e20616c7265616479206d696e74656400000000600082015250565b7f4552433732313a207472616e7366657220746f20746865207a65726f2061646460008201527f7265737300000000000000000000000000000000000000000000000000000000602082015250565b7f4552433732313a20617070726f766520746f2063616c6c657200000000000000600082015250565b7f4552433732313a206f70657261746f7220717565727920666f72206e6f6e657860008201527f697374656e7420746f6b656e0000000000000000000000000000000000000000602082015250565b7f4552433732313a20617070726f76652063616c6c6572206973206e6f74206f7760008201527f6e6572206e6f7220617070726f76656420666f7220616c6c0000000000000000602082015250565b7f4552433732313a2062616c616e636520717565727920666f7220746865207a6560008201527f726f206164647265737300000000000000000000000000000000000000000000602082015250565b7f4552433732313a206f776e657220717565727920666f72206e6f6e657869737460008201527f656e7420746f6b656e0000000000000000000000000000000000000000000000602082015250565b7f4552433732313a206d696e7420746f20746865207a65726f2061646472657373600082015250565b7f4552433732313a20617070726f76656420717565727920666f72206e6f6e657860008201527f697374656e7420746f6b656e0000000000000000000000000000000000000000602082015250565b7f4552433732313a207472616e73666572206f6620746f6b656e2074686174206960008201527f73206e6f74206f776e0000000000000000000000000000000000000000000000602082015250565b7f4552433732314d657461646174613a2055524920717565727920666f72206e6f60008201527f6e6578697374656e7420746f6b656e0000000000000000000000000000000000602082015250565b7f4552433732313a20617070726f76616c20746f2063757272656e74206f776e6560008201527f7200000000000000000000000000000000000000000000000000000000000000602082015250565b7f4552433732313a207472616e736665722063616c6c6572206973206e6f74206f60008201527f776e6572206e6f7220617070726f766564000000000000000000000000000000602082015250565b6130698161298b565b811461307457600080fd5b50565b6130808161299d565b811461308b57600080fd5b50565b613097816129a9565b81146130a257600080fd5b50565b6130ae816129d5565b81146130b957600080fd5b50565b6130c581612a01565b81146130d057600080fd5b50565b6130dc81612a2b565b81146130e757600080fd5b50565b6130f381612a3a565b81146130fe57600080fd5b5056fe3c7376672077696474683d2236343022206865696768743d2236343022207374726f6b653d222330303022207374726f6b652d77696474683d223130222066696c6c3d2223666666222076657273696f6e3d22312e312220786d6c6e733d22687474703a2f2f7777772e77332e6f72672f323030302f737667223e3c67207472616e73666f726d3d227472616e736c617465283332302c33323029223e3c706f6c79676f6e20706f696e74733d2230202d3133342c313230202d36302c3132302036302c30203133342c2d3132302036302c2d313230202d3630222f3e3c6c696e652078313d2230222079313d222d313334222078323d2230222079323d22313334222f3e3c6c696e652078313d22313230222079313d222d3630222078323d222d313230222079323d223630222f3e3c6c696e652078313d22313230222079313d223630222078323d222d313230222079323d222d3630222f3e3c636972636c652063783d2230222063793d222d3133342220723d223235222f3e3c636972636c652063783d22313230222063793d222d36302220723d223235222f3e3c636972636c652063783d22313230222063793d2236302220723d223235222f3e3c636972636c652063783d2230222063793d223133342220723d223235222f3e3c636972636c65202063783d222d313230222063793d2236302220723d223235222f3e3c636972636c652063783d222d313230222063793d222d36302220723d223235222f3e3c636972636c652063783d2230222063793d22302220723d223235222f3e3c67207374726f6b652d77696474683d2236223e3c656c6c697073652063783d222d323239222063793d2230222072783d223630222072793d22333222207472616e73666f726d3d22726f7461746528222f3e3c656c6c697073652063783d222d323039222063793d2230222072783d223430222072793d22323122207472616e73666f726d3d22726f7461746528a2646970667358221220e85c0920e5785af425aa8a948706831265d281d00076cca8c2f0ecdfacfb7c1664736f6c63430008070033",
  "immutableReferences": {},
  "source": "// SPDX-License-Identifier: GPL-3.0\npragma solidity >=0.7.0 <0.9.0;\nimport { IBlockClockSvgNft } from './IBlockClockSvgNft.sol';\nimport { Bridge } from './Bridge.sol';\nimport \"@openzeppelin/contracts/token/ERC721/ERC721.sol\";\n\ncontract BlockClockSvgNft is\n    IBlockClockSvgNft,\n    ERC721\n{\n    struct TokenData {\n        bytes3 bitcoinLeafColour;\n        bytes3 rskLeafColour;\n    }\n\n    uint256 tokenCount;\n    // Mapping from token ID to token data\n    mapping(uint256 => TokenData) private tokens;\n\n    event TokenInfo(uint256 _tokenId, bytes3 _bitcoinLeafColour, bytes3 _rskLeafColour);\n\n    constructor()\n        ERC721(\"TestBlockClockNft\", \"TestBCLK\")\n    {\n        tokenCount = 0;\n    }\n\n    function create(\n        bytes3 bitcoinLeafColour,\n        bytes3 rskLeafColour\n    )\n        public\n    {\n        uint256 tokenId = ++tokenCount;\n        TokenData memory newToken = TokenData(\n            bitcoinLeafColour,\n            rskLeafColour\n        );\n        tokens[tokenId] = newToken;\n        _safeMint(msg.sender, tokenId);\n        emit TokenInfo(tokenId, bitcoinLeafColour, rskLeafColour);\n    }\n\n    function renderSvgLogo(uint256 _tokenId) public view override returns(string memory) {\n        bytes3 bitcoinLeafColour = tokens[_tokenId].bitcoinLeafColour;\n        bytes3 rskLeafColour = tokens[_tokenId].rskLeafColour;\n        (uint256 btcBlockNum, uint256 rskBlockNum) = getRskBtcBlockNumbers();\n        string memory svgLogo = getRenderedSvgLogo(btcBlockNum, rskBlockNum, bitcoinLeafColour, rskLeafColour);\n        return svgLogo;\n    }\n\n    function getRskBtcBlockNumbers() public view override returns(uint256, uint256) {\n        uint256 rskBlockNumber = block.number;\n        uint256 bestChainHeight = uint256(getBridge().getBtcBlockchainBestChainHeight());\n        return (bestChainHeight, rskBlockNumber);\n    }\n\n    function getRenderedSvgLogo(\n      uint256 _btcBlockNum,\n      uint256 _rskBlockNum,\n      bytes3 _bitcoinLeafColour,\n      bytes3 _rskLeafColour\n    ) private pure returns(string memory) {\n        string memory header = '<svg width=\"640\" height=\"640\" stroke=\"#000\" stroke-width=\"10\" fill=\"#fff\" version=\"1.1\" xmlns=\"http://www.w3.org/2000/svg\"><g transform=\"translate(320,320)\"><polygon points=\"0 -134,120 -60,120 60,0 134,-120 60,-120 -60\"/><line x1=\"0\" y1=\"-134\" x2=\"0\" y2=\"134\"/><line x1=\"120\" y1=\"-60\" x2=\"-120\" y2=\"60\"/><line x1=\"120\" y1=\"60\" x2=\"-120\" y2=\"-60\"/><circle cx=\"0\" cy=\"-134\" r=\"25\"/><circle cx=\"120\" cy=\"-60\" r=\"25\"/><circle cx=\"120\" cy=\"60\" r=\"25\"/><circle cx=\"0\" cy=\"134\" r=\"25\"/><circle  cx=\"-120\" cy=\"60\" r=\"25\"/><circle cx=\"-120\" cy=\"-60\" r=\"25\"/><circle cx=\"0\" cy=\"0\" r=\"25\"/><g stroke-width=\"6\"><ellipse cx=\"-229\" cy=\"0\" rx=\"60\" ry=\"32\" transform=\"rotate(';\n        string memory fill = ', 0, 0)\" fill=\"#';\n        string memory ellipse = '\"/><ellipse cx=\"-209\" cy=\"0\" rx=\"40\" ry=\"21\" transform=\"rotate(';\n        string memory footer = '\"/></g></g></svg>';\n        return string(abi.encodePacked(\n            header,\n            uint2str(getHourHandAngle(_btcBlockNum)),\n            fill,\n            bytes3ToHexStr(_bitcoinLeafColour),\n            ellipse,\n            uint2str(getMinuteHandAngle(_rskBlockNum)),\n            fill,\n            bytes3ToHexStr(_rskLeafColour),\n            footer\n        ));\n    }\n\n    function getBridge() private pure returns (Bridge) {\n        return Bridge(address(0x01000006));\n    }\n\n    function uint8ToHexCharCode(uint8 i) private pure returns (uint8) {\n        return (i > 9) ?\n            (i + 87) : // ascii a-f\n            (i + 48); // ascii 0-9\n    }\n\n    function uint24ToHexStr(uint24 i) public pure returns (string memory) {\n        bytes memory o = new bytes(6);\n        uint24 mask = 0x00000f; // hex 15\n        for(uint k = 6; k >= 1; k -= 1) {\n          o[k - 1] = bytes1(uint8ToHexCharCode(uint8(i & mask)));\n          i >>= 4;\n        }\n        return string(o);\n    }\n\n    function bytes3ToHexStr(bytes3 i) private pure returns (string memory) {\n      uint24 n = uint24(i);\n      return uint24ToHexStr(n);\n    }\n\n    // https://stackoverflow.com/questions/47129173/how-to-convert-uint-to-string-in-solidity\n    function uint2str(uint _i) private pure returns (string memory _uintAsString) {\n        if (_i == 0) {\n            return \"0\";\n        }\n        uint j = _i;\n        uint len;\n        while (j != 0) {\n            len++;\n            j /= 10;\n        }\n        bytes memory bstr = new bytes(len);\n        uint k = len;\n        while (_i != 0) {\n            k = k-1;\n            uint8 temp = (48 + uint8(_i - _i / 10 * 10));\n            bytes1 b1 = bytes1(temp);\n            bstr[k] = b1;\n            _i /= 10;\n        }\n        return string(bstr);\n    }\n\n    function getHourHandAngle(uint256 _value) private pure returns(uint256) {\n        return (_value % 6) * 60 + 90;\n    }\n\n    function getMinuteHandAngle(uint256 _value) private pure returns(uint256) {\n        return (_value % 20) * 18 + 90;\n    }\n}\n",
  "sourcePath": "/Users/shenshin/Projects/IOV/block-clock-nft-demo/github-repo/contracts/BlockClockSvgNft.sol",
  "compiler": {
    "name": "solc",
    "version": "0.8.7+commit.e28d00a7.Emscripten.clang"
  },
  "schemaVersion": "3.4.3",
  "updatedAt": "2021-09-30T16:40:51.943Z",
  "networkType": "ethereum",
  "devdoc": {
    "kind": "dev",
    "methods": {
      "approve(address,uint256)": {
        "details": "See {IERC721-approve}."
      },
      "balanceOf(address)": {
        "details": "See {IERC721-balanceOf}."
      },
      "getApproved(uint256)": {
        "details": "See {IERC721-getApproved}."
      },
      "isApprovedForAll(address,address)": {
        "details": "See {IERC721-isApprovedForAll}."
      },
      "name()": {
        "details": "See {IERC721Metadata-name}."
      },
      "ownerOf(uint256)": {
        "details": "See {IERC721-ownerOf}."
      },
      "safeTransferFrom(address,address,uint256)": {
        "details": "See {IERC721-safeTransferFrom}."
      },
      "safeTransferFrom(address,address,uint256,bytes)": {
        "details": "See {IERC721-safeTransferFrom}."
      },
      "setApprovalForAll(address,bool)": {
        "details": "See {IERC721-setApprovalForAll}."
      },
      "supportsInterface(bytes4)": {
        "details": "See {IERC165-supportsInterface}."
      },
      "symbol()": {
        "details": "See {IERC721Metadata-symbol}."
      },
      "tokenURI(uint256)": {
        "details": "See {IERC721Metadata-tokenURI}."
      },
      "transferFrom(address,address,uint256)": {
        "details": "See {IERC721-transferFrom}."
      }
    },
    "version": 1
  },
  "userdoc": {
    "kind": "user",
    "methods": {},
    "version": 1
  }
}